:100000000C9434000C9451000C9451000C94510049
:100010000C9451000C9451000C9451000C94FE006F
:100020000C9451000C9451000C9451000C946C00F1
:100030000C9451000C9451000C9451000C945100FC
:100040000C940D010C9451000C9451000C9451002F
:100050000C9451000C94B1000C9451000C9451007C
:100060000C9451000C94510011241FBECFEFD8E026
:10007000DEBFCDBF11E0A0E0B1E0E0E3F6E002C0FA
:1000800005900D92A830B107D9F721E0A8E0B1E0C2
:1000900001C01D92A836B207E1F70E945B020C94E2
:1000A00016030C940000653F7140810591059CF496
:1000B0008091600190916101019769F480916201E2
:1000C00090916301019663E070E00E94EE029093CC
:1000D00063018093620108951F920F920FB60F92F1
:1000E00011242F938F939F93EF93FF9380910E0191
:1000F00090910F01883823E1920759F410920F0173
:1001000010920E019091100181E0892780931001D7
:1001100005C0019690930F0180930E01809110010C
:10012000811102C090E001C09EEFE0910C01F091BE
:100130000D01908381118EEF818380911F018BB916
:100140008091200187FF02C02B9A01C02B98FF915C
:10015000EF919F918F912F910F900FBE0F901F9055
:10016000189578941F920F920FB60F9211242F9327
:100170008F939F93809178002091790090E0922B4B
:1001800020911D01213091F058F02230B9F0253036
:1001900041F5909312018093110110921D0121C02D
:1001A000909314018093130181E005C09093160190
:1001B0008093150182E080931D0113C09093180174
:1001C0008093170180911E01833030F085E0809389
:1001D0001D0110921E0105C020931D018F5F8093A9
:1001E0001E0180911D01806480937C009F918F91FE
:1001F0002F910F900FBE0F901F9018951F920F9286
:100200000FB60F9211248F938FEC80937A008F9109
:100210000F900FBE0F901F90189578941F920F9219
:100220000FB60F9211240F931F932F933F934F9369
:100230005F936F937F938F939F93AF93BF93EF934E
:10024000FF93CF93DF93CDB7DEB72A97F894DEBF45
:100250007894CDBF8091210190912201A09123013A
:10026000B09124010196A11DB11D809321019093AD
:100270002201A0932301B093240183B18170809364
:100280005901811144C080915A01811115C080919A
:10029000210190912201A0912301B091240180932A
:1002A000490190934A01A0934B01B0934C011092E5
:1002B0004D0181E080935A010091490110914A015A
:1002C00020914B0130914C0101151105210531059B
:1002D00009F451C08091210190912201A091230144
:1002E000B0912401BC01CD01601B710B820B930BFB
:1002F00020914D012111AEC0653F21E072078105BB
:100300009105CCF10E94530081E080934D018091D2
:100310005901813081F50091490110914A012091E4
:100320004B0130914C01011511052105310519F1E1
:1003300080914D0181111FC0809121019091220176
:10034000A0912301B09124010196A11DB11DBC0112
:10035000CD01601B710B820B930B0E945300109216
:10036000490110924A0110924B0110924C011092D7
:100370004D0110925A01A0915E01B0915F01E5E23A
:10038000F1E02DE231E04FE18D919D9104851585DD
:10039000409FB001419F700D1124860F971F55E0BB
:1003A000969587955A95E1F7958784876081718145
:1003B0008617970721F0918F808F918380833296E3
:1003C0002E173F0709F781E0898782E08A8788E056
:1003D000E0E0F1E0DE01119601900D928A95E1F7DF
:1003E0008091600190916101019709F049C0DE019F
:1003F000199680E090E061E070E0E0916201F09198
:100400006301EE0FFF1F21E030E02C0F3D1FE20FD4
:10041000F31FE80FF91F2081213051F445B19B01F2
:100420000C9002C0220F331F0A94E2F7242B0BC05A
:1004300035B1AB010C9002C0440F551F0A94E2F78E
:10044000242F2095232325B90196119682309105FA
:10045000A1F616C0613D37E07307810591050CF4E4
:100460008ACF0E94530010924D01109249011092C0
:100470004A0110924B0110924C0110925A0147CF41
:100480002A960FB6F894DEBF0FBECDBFDF91CF9195
:10049000FF91EF91BF91AF919F918F917F916F915C
:1004A0005F914F913F912F911F910F910F900FBE30
:1004B0000F901F901895F89480918100877E886036
:1004C00080938100809180008C7F80938000809158
:1004D0008100887F81608093810080916F008260BD
:1004E00080936F00789480EB94E0909389008093E0
:1004F000880085B5836085BD80916E0081608093A2
:100500006E008AB18FEF8AB99BB18BB9239A3B9861
:100510003C9898B1986198B921E131E010921E01A0
:1005200095E090931D0195E490937C0010927B00E0
:100530009FE990937A001092B60092E09093B000F9
:1005400044E04093B1001092B20049EF4093B300F1
:100550009093700030935F0120935E0194B1966098
:1005600094B92098289A80935D01109263011092AB
:10057000620181E090E090936101809360011092AC
:100580005401109255011092560110925701109289
:1005900058018093590110925A011092490110920A
:1005A0004A0110924B0110924C0110924D0185E2CC
:1005B00091E0909309018093080130930B012093FF
:1005C0000A018FE191E090930D0180930C0110924C
:1005D0000F0110920E0110921001FFCF97FB072E12
:1005E00016F4009407D077FD09D00E94020307FC9F
:1005F00005D03EF4909581959F4F08957095619533
:100600007F4F0895AA1BBB1B51E107C0AA1FBB1F48
:10061000A617B70710F0A61BB70B881F991F5A958E
:10062000A9F780959095BC01CD010895F894FFCF6E
:080630000100000101010000BE
:00000001FF
